{
  "contractName": "MerkleToken",
  "abi": [
    {
      "inputs": [],
      "stateMutability": "nonpayable",
      "type": "constructor"
    },
    {
      "inputs": [],
      "name": "TOKEN_NAME",
      "outputs": [
        {
          "internalType": "string",
          "name": "",
          "type": "string"
        }
      ],
      "stateMutability": "view",
      "type": "function"
    },
    {
      "inputs": [],
      "name": "TOKEN_SYMBOL",
      "outputs": [
        {
          "internalType": "string",
          "name": "",
          "type": "string"
        }
      ],
      "stateMutability": "view",
      "type": "function"
    },
    {
      "inputs": [],
      "name": "TOTAL_TOKENS",
      "outputs": [
        {
          "internalType": "uint256",
          "name": "",
          "type": "uint256"
        }
      ],
      "stateMutability": "view",
      "type": "function"
    },
    {
      "inputs": [
        {
          "internalType": "uint256",
          "name": "",
          "type": "uint256"
        }
      ],
      "name": "balanceArray",
      "outputs": [
        {
          "internalType": "uint256",
          "name": "",
          "type": "uint256"
        }
      ],
      "stateMutability": "view",
      "type": "function"
    },
    {
      "inputs": [],
      "name": "getLast",
      "outputs": [
        {
          "internalType": "uint256",
          "name": "",
          "type": "uint256"
        }
      ],
      "stateMutability": "view",
      "type": "function"
    }
  ],
  "bytecode": "0x60806040526040518060600160405280600160ff168152602001600260ff168152602001600560ff16815250600090600361003b92919061004e565b5034801561004857600080fd5b506100bd565b82805482825590600052602060002090810192821561008f579160200282015b8281111561008e578251829060ff1690559160200191906001019061006e565b5b50905061009c91906100a0565b5090565b5b808211156100b95760008160009055506001016100a1565b5090565b61044b806100cc6000396000f3fe608060405234801561001057600080fd5b50600436106100575760003560e01c80630b7abf771461005c578063188214001461007a5780632a905318146100985780634d622831146100b657806372649ca6146100d4575b600080fd5b610064610104565b604051610071919061024f565b60405180910390f35b61008261010a565b60405161008f9190610303565b60405180910390f35b6100a0610143565b6040516100ad9190610303565b60405180910390f35b6100be61017c565b6040516100cb919061024f565b60405180910390f35b6100ee60048036038101906100e99190610356565b6101dc565b6040516100fb919061024f565b60405180910390f35b61271081565b6040518060400160405280600b81526020017f4d65726b6c65546f6b656e00000000000000000000000000000000000000000081525081565b6040518060400160405280600481526020017f4d544b4e0000000000000000000000000000000000000000000000000000000081525081565b60006101d760008054806020026020016040519081016040528092919081815260200182805480156101cd57602002820191906000526020600020905b8154815260200190600101908083116101b9575b5050505050610200565b905090565b600081815481106101ec57600080fd5b906000526020600020016000915090505481565b600080825190508260018261021591906103b2565b81518110610226576102256103e6565b5b6020026020010151915050919050565b6000819050919050565b61024981610236565b82525050565b60006020820190506102646000830184610240565b92915050565b600081519050919050565b600082825260208201905092915050565b60005b838110156102a4578082015181840152602081019050610289565b838111156102b3576000848401525b50505050565b6000601f19601f8301169050919050565b60006102d58261026a565b6102df8185610275565b93506102ef818560208601610286565b6102f8816102b9565b840191505092915050565b6000602082019050818103600083015261031d81846102ca565b905092915050565b600080fd5b61033381610236565b811461033e57600080fd5b50565b6000813590506103508161032a565b92915050565b60006020828403121561036c5761036b610325565b5b600061037a84828501610341565b91505092915050565b7f4e487b7100000000000000000000000000000000000000000000000000000000600052601160045260246000fd5b60006103bd82610236565b91506103c883610236565b9250828210156103db576103da610383565b5b828203905092915050565b7f4e487b7100000000000000000000000000000000000000000000000000000000600052603260045260246000fdfea264697066735822122071fe9597808b0ad2343644de35b389c15862dff6e84d484c6bc734c32d69536e64736f6c634300080a0033",
  "immutableReferences": {},
  "source": "pragma solidity ^0.8.0;\r\n\r\n//import \"openzeppelin-solidity/contracts/utils/cryptography/MerkleProof.sol\";\r\n\r\ncontract MerkleToken\r\n{\r\n    string public constant TOKEN_NAME = \"MerkleToken\";\r\n    string public constant TOKEN_SYMBOL = \"MTKN\";\r\n    uint256 public constant TOTAL_TOKENS = 10000;\r\n    uint256[] public balanceArray = [1, 2, 5];\r\n\r\n    constructor () public\r\n    {\r\n      \r\n    }\r\n\r\n    function getLastInteger(uint256[] memory balance) internal view returns (uint256)\r\n    {\r\n        uint256 balanceLength = balance.length;\r\n        return balance[balanceLength-1];\r\n    }\r\n    \r\n    function getLast() external view returns (uint256)\r\n    {\r\n        return getLastInteger(balanceArray);\r\n    }\r\n}",
  "sourcePath": "C:\\Solidity\\MerkleTree\\contracts\\MerkleToken.sol",
  "compiler": {
    "name": "solc",
    "version": "0.8.10+commit.fc410830.Emscripten.clang"
  },
  "schemaVersion": "3.4.3",
  "updatedAt": "2022-09-26T08:10:17.668Z",
  "devdoc": {
    "kind": "dev",
    "methods": {},
    "version": 1
  },
  "userdoc": {
    "kind": "user",
    "methods": {},
    "version": 1
  }
}