{
  "contractName": "MerkleTreeX",
  "abi": [
    {
      "inputs": [],
      "stateMutability": "nonpayable",
      "type": "constructor"
    },
    {
      "inputs": [],
      "name": "getHashesArray",
      "outputs": [
        {
          "internalType": "bytes32[]",
          "name": "",
          "type": "bytes32[]"
        }
      ],
      "stateMutability": "view",
      "type": "function",
      "constant": true
    },
    {
      "inputs": [],
      "name": "getHashesArrayLength",
      "outputs": [
        {
          "internalType": "uint256",
          "name": "",
          "type": "uint256"
        }
      ],
      "stateMutability": "view",
      "type": "function",
      "constant": true
    },
    {
      "inputs": [],
      "name": "getMerkleTreeRoot",
      "outputs": [
        {
          "internalType": "bytes32",
          "name": "",
          "type": "bytes32"
        }
      ],
      "stateMutability": "view",
      "type": "function",
      "constant": true
    },
    {
      "inputs": [
        {
          "internalType": "bytes32[]",
          "name": "proofs",
          "type": "bytes32[]"
        },
        {
          "internalType": "string",
          "name": "leaf",
          "type": "string"
        },
        {
          "internalType": "uint256",
          "name": "index",
          "type": "uint256"
        }
      ],
      "name": "isValidTransaction",
      "outputs": [
        {
          "internalType": "bool",
          "name": "",
          "type": "bool"
        }
      ],
      "stateMutability": "view",
      "type": "function",
      "constant": true
    },
    {
      "inputs": [
        {
          "internalType": "bytes32[]",
          "name": "proofs",
          "type": "bytes32[]"
        },
        {
          "internalType": "string",
          "name": "leaf",
          "type": "string"
        },
        {
          "internalType": "uint256",
          "name": "index",
          "type": "uint256"
        }
      ],
      "name": "processProof",
      "outputs": [
        {
          "internalType": "bytes32",
          "name": "",
          "type": "bytes32"
        }
      ],
      "stateMutability": "pure",
      "type": "function",
      "constant": true
    },
    {
      "inputs": [
        {
          "internalType": "uint256",
          "name": "",
          "type": "uint256"
        }
      ],
      "name": "transactions",
      "outputs": [
        {
          "internalType": "string",
          "name": "",
          "type": "string"
        }
      ],
      "stateMutability": "view",
      "type": "function",
      "constant": true
    }
  ],
  "bytecode": "0x608060405260405180608001604052806040518060400160405280601681526020017f5458313a2053636865726c6f636b202d3e204a6f686e0000000000000000000081525081526020016040518060400160405280601581526020017f5458323a204a6f686e202d3e20536865726c6f636b000000000000000000000081525081526020016040518060400160405280601181526020017f5458333a204a6f686e202d3e204d61727900000000000000000000000000000081525081526020016040518060400160405280601581526020017f5458343a204d617279202d3e20536865726c6f636b000000000000000000000081525081525060019060046200010b929190620003d9565b503480156200011957600080fd5b506001805480602002602001604051908101604052809291908181526020016000905b82821015620001f25783829060005260206000200180546200015e906200058d565b80601f01602080910402602001604051908101604052809291908181526020018280546200018c906200058d565b8015620001dd5780601f10620001b157610100808354040283529160200191620001dd565b820191906000526020600020905b815481529060010190602001808311620001bf57829003601f168201915b5050505050815260200190600101906200013c565b5050505060005b81518110156200026f576000620002338383815181106200021f576200021e620005c3565b5b6020026020010151620003a760201b60201c565b9080600181540180825580915050600190039060005260206000200160009091909190915055808062000266906200062b565b915050620001f9565b5060008151905060005b60008211156200039e5760005b60018362000295919062000679565b81101562000376576000808284620002ae9190620006b4565b81548110620002c257620002c1620005c3565b5b9060005260206000200154600060018486620002df9190620006b4565b620002eb9190620006b4565b81548110620002ff57620002fe620005c3565b5b90600052602060002001546040516020016200031d92919062000740565b6040516020818303038152906040528051906020012090506000819080600181540180825580915050600190039060005260206000200160009091909190915055506002816200036e9190620006b4565b905062000286565b508181620003859190620006b4565b90506002826200039691906200079f565b915062000279565b50505062000873565b600081604051602001620003bc91906200085a565b604051602081830303815290604052805190602001209050919050565b8280548282559060005260206000209081019282156200042d579160200282015b828111156200042c5782518290805190602001906200041b92919062000440565b5091602001919060010190620003fa565b5b5090506200043c9190620004d1565b5090565b8280546200044e906200058d565b90600052602060002090601f016020900481019282620004725760008555620004be565b82601f106200048d57805160ff1916838001178555620004be565b82800160010185558215620004be579182015b82811115620004bd578251825591602001919060010190620004a0565b5b509050620004cd9190620004f9565b5090565b5b80821115620004f55760008181620004eb919062000518565b50600101620004d2565b5090565b5b8082111562000514576000816000905550600101620004fa565b5090565b50805462000526906200058d565b6000825580601f106200053a57506200055b565b601f0160209004906000526020600020908101906200055a9190620004f9565b5b50565b7f4e487b7100000000000000000000000000000000000000000000000000000000600052602260045260246000fd5b60006002820490506001821680620005a657607f821691505b60208210811415620005bd57620005bc6200055e565b5b50919050565b7f4e487b7100000000000000000000000000000000000000000000000000000000600052603260045260246000fd5b7f4e487b7100000000000000000000000000000000000000000000000000000000600052601160045260246000fd5b6000819050919050565b6000620006388262000621565b91507fffffffffffffffffffffffffffffffffffffffffffffffffffffffffffffffff8214156200066e576200066d620005f2565b5b600182019050919050565b6000620006868262000621565b9150620006938362000621565b925082821015620006a957620006a8620005f2565b5b828203905092915050565b6000620006c18262000621565b9150620006ce8362000621565b9250827fffffffffffffffffffffffffffffffffffffffffffffffffffffffffffffffff03821115620007065762000705620005f2565b5b828201905092915050565b6000819050919050565b6000819050919050565b6200073a620007348262000711565b6200071b565b82525050565b60006200074e828562000725565b60208201915062000760828462000725565b6020820191508190509392505050565b7f4e487b7100000000000000000000000000000000000000000000000000000000600052601260045260246000fd5b6000620007ac8262000621565b9150620007b98362000621565b925082620007cc57620007cb62000770565b5b828204905092915050565b600081519050919050565b600081905092915050565b60005b838110156200080d578082015181840152602081019050620007f0565b838111156200081d576000848401525b50505050565b60006200083082620007d7565b6200083c8185620007e2565b93506200084e818560208601620007ed565b80840191505092915050565b600062000868828462000823565b915081905092915050565b610bda80620008836000396000f3fe608060405234801561001057600080fd5b50600436106100625760003560e01c806308360ba7146100675780631e20af2e1461009757806372d274ef146100b55780639ace38c2146100d3578063c3fc43f314610103578063e293676f14610121575b600080fd5b610081600480360381019061007c919061066b565b610151565b60405161008e9190610705565b60405180910390f35b61009f610243565b6040516100ac919061072f565b60405180910390f35b6100bd61024f565b6040516100ca9190610808565b60405180910390f35b6100ed60048036038101906100e8919061082a565b6102a7565b6040516100fa91906108df565b60405180910390f35b61010b610353565b6040516101189190610705565b60405180910390f35b61013b6004803603810190610136919061066b565b610389565b604051610148919061091c565b60405180910390f35b60008061015d846103ad565b905060005b85518110156102375760008060028661017b9190610966565b14156101cb578287838151811061019557610194610997565b5b60200260200101516040516020016101ae9291906109e7565b604051602081830303815290604052805190602001209050610211565b8682815181106101de576101dd610997565b5b6020026020010151836040516020016101f89291906109e7565b6040516020818303038152906040528051906020012090505b60028561021e9190610a42565b945080925050808061022f90610a73565b915050610162565b50809150509392505050565b60008080549050905090565b6060600080548060200260200160405190810160405280929190818152602001828054801561029d57602002820191906000526020600020905b815481526020019060010190808311610289575b5050505050905090565b600181815481106102b757600080fd5b9060005260206000200160009150905080546102d290610aeb565b80601f01602080910402602001604051908101604052809291908181526020018280546102fe90610aeb565b801561034b5780601f106103205761010080835404028352916020019161034b565b820191906000526020600020905b81548152906001019060200180831161032e57829003601f168201915b505050505081565b60008060016000805490506103689190610b1d565b8154811061037957610378610997565b5b9060005260206000200154905090565b600080610397858585610151565b90506103a1610353565b81149150509392505050565b6000816040516020016103c09190610b8d565b604051602081830303815290604052805190602001209050919050565b6000604051905090565b600080fd5b600080fd5b600080fd5b6000601f19601f8301169050919050565b7f4e487b7100000000000000000000000000000000000000000000000000000000600052604160045260246000fd5b61043f826103f6565b810181811067ffffffffffffffff8211171561045e5761045d610407565b5b80604052505050565b60006104716103dd565b905061047d8282610436565b919050565b600067ffffffffffffffff82111561049d5761049c610407565b5b602082029050602081019050919050565b600080fd5b6000819050919050565b6104c6816104b3565b81146104d157600080fd5b50565b6000813590506104e3816104bd565b92915050565b60006104fc6104f784610482565b610467565b9050808382526020820190506020840283018581111561051f5761051e6104ae565b5b835b81811015610548578061053488826104d4565b845260208401935050602081019050610521565b5050509392505050565b600082601f830112610567576105666103f1565b5b81356105778482602086016104e9565b91505092915050565b600080fd5b600067ffffffffffffffff8211156105a05761059f610407565b5b6105a9826103f6565b9050602081019050919050565b82818337600083830152505050565b60006105d86105d384610585565b610467565b9050828152602081018484840111156105f4576105f3610580565b5b6105ff8482856105b6565b509392505050565b600082601f83011261061c5761061b6103f1565b5b813561062c8482602086016105c5565b91505092915050565b6000819050919050565b61064881610635565b811461065357600080fd5b50565b6000813590506106658161063f565b92915050565b600080600060608486031215610684576106836103e7565b5b600084013567ffffffffffffffff8111156106a2576106a16103ec565b5b6106ae86828701610552565b935050602084013567ffffffffffffffff8111156106cf576106ce6103ec565b5b6106db86828701610607565b92505060406106ec86828701610656565b9150509250925092565b6106ff816104b3565b82525050565b600060208201905061071a60008301846106f6565b92915050565b61072981610635565b82525050565b60006020820190506107446000830184610720565b92915050565b600081519050919050565b600082825260208201905092915050565b6000819050602082019050919050565b61077f816104b3565b82525050565b60006107918383610776565b60208301905092915050565b6000602082019050919050565b60006107b58261074a565b6107bf8185610755565b93506107ca83610766565b8060005b838110156107fb5781516107e28882610785565b97506107ed8361079d565b9250506001810190506107ce565b5085935050505092915050565b6000602082019050818103600083015261082281846107aa565b905092915050565b6000602082840312156108405761083f6103e7565b5b600061084e84828501610656565b91505092915050565b600081519050919050565b600082825260208201905092915050565b60005b83811015610891578082015181840152602081019050610876565b838111156108a0576000848401525b50505050565b60006108b182610857565b6108bb8185610862565b93506108cb818560208601610873565b6108d4816103f6565b840191505092915050565b600060208201905081810360008301526108f981846108a6565b905092915050565b60008115159050919050565b61091681610901565b82525050565b6000602082019050610931600083018461090d565b92915050565b7f4e487b7100000000000000000000000000000000000000000000000000000000600052601260045260246000fd5b600061097182610635565b915061097c83610635565b92508261098c5761098b610937565b5b828206905092915050565b7f4e487b7100000000000000000000000000000000000000000000000000000000600052603260045260246000fd5b6000819050919050565b6109e16109dc826104b3565b6109c6565b82525050565b60006109f382856109d0565b602082019150610a0382846109d0565b6020820191508190509392505050565b7f4e487b7100000000000000000000000000000000000000000000000000000000600052601160045260246000fd5b6000610a4d82610635565b9150610a5883610635565b925082610a6857610a67610937565b5b828204905092915050565b6000610a7e82610635565b91507fffffffffffffffffffffffffffffffffffffffffffffffffffffffffffffffff821415610ab157610ab0610a13565b5b600182019050919050565b7f4e487b7100000000000000000000000000000000000000000000000000000000600052602260045260246000fd5b60006002820490506001821680610b0357607f821691505b60208210811415610b1757610b16610abc565b5b50919050565b6000610b2882610635565b9150610b3383610635565b925082821015610b4657610b45610a13565b5b828203905092915050565b600081905092915050565b6000610b6782610857565b610b718185610b51565b9350610b81818560208601610873565b80840191505092915050565b6000610b998284610b5c565b91508190509291505056fea2646970667358221220776030e2ed3460e3aefcb56495d449d69c2ed5010d087751cf8fd7277c69f0ca64736f6c634300080a0033",
  "immutableReferences": {},
  "source": "pragma solidity ^0.8.0;\r\n\r\nimport \"./MerkleTree.sol\";\r\n\r\ncontract MerkleTreeX is MerkleTree\r\n{\r\n   string[] public transactions = [\r\n        \"TX1: Scherlock -> John\",\r\n        \"TX2: John -> Sherlock\",\r\n        \"TX3: John -> Mary\",\r\n        \"TX4: Mary -> Sherlock\"\r\n    ];\r\n\r\n   constructor ()\r\n   MerkleTree(transactions) public\r\n   {\r\n     \r\n   }\r\n}",
  "sourcePath": "C:\\Solidity\\MerkleTree\\contracts\\MerkleTreeX.sol",
  "compiler": {
    "name": "solc",
    "version": "0.8.10+commit.fc410830.Emscripten.clang"
  },
  "schemaVersion": "3.4.3",
  "updatedAt": "2022-09-16T09:50:00.993Z",
  "networkType": "ethereum",
  "devdoc": {
    "kind": "dev",
    "methods": {},
    "version": 1
  },
  "userdoc": {
    "kind": "user",
    "methods": {},
    "version": 1
  }
}