{
  "contractName": "MerkleTreeX",
  "abi": [
    {
      "inputs": [],
      "stateMutability": "nonpayable",
      "type": "constructor"
    },
    {
      "inputs": [],
      "name": "getHashesArray",
      "outputs": [
        {
          "internalType": "bytes32[]",
          "name": "",
          "type": "bytes32[]"
        }
      ],
      "stateMutability": "view",
      "type": "function",
      "constant": true
    },
    {
      "inputs": [],
      "name": "getHashesArrayLength",
      "outputs": [
        {
          "internalType": "uint256",
          "name": "",
          "type": "uint256"
        }
      ],
      "stateMutability": "view",
      "type": "function",
      "constant": true
    },
    {
      "inputs": [
        {
          "internalType": "bytes32[]",
          "name": "proofs",
          "type": "bytes32[]"
        },
        {
          "internalType": "string",
          "name": "leaf",
          "type": "string"
        },
        {
          "internalType": "uint256",
          "name": "index",
          "type": "uint256"
        }
      ],
      "name": "isValidTransaction",
      "outputs": [
        {
          "internalType": "bool",
          "name": "",
          "type": "bool"
        }
      ],
      "stateMutability": "view",
      "type": "function",
      "constant": true
    },
    {
      "inputs": [
        {
          "internalType": "uint256",
          "name": "",
          "type": "uint256"
        }
      ],
      "name": "transactions",
      "outputs": [
        {
          "internalType": "string",
          "name": "",
          "type": "string"
        }
      ],
      "stateMutability": "view",
      "type": "function",
      "constant": true
    }
  ],
  "bytecode": "0x608060405260405180608001604052806040518060400160405280600d81526020017f5472616e73616374696f6e20310000000000000000000000000000000000000081525081526020016040518060400160405280600d81526020017f5472616e73616374696f6e20320000000000000000000000000000000000000081525081526020016040518060400160405280600d81526020017f5472616e73616374696f6e20330000000000000000000000000000000000000081525081526020016040518060400160405280600d81526020017f5472616e73616374696f6e20340000000000000000000000000000000000000081525081525060019060046200010b929190620003d9565b503480156200011957600080fd5b506001805480602002602001604051908101604052809291908181526020016000905b82821015620001f25783829060005260206000200180546200015e906200058d565b80601f01602080910402602001604051908101604052809291908181526020018280546200018c906200058d565b8015620001dd5780601f10620001b157610100808354040283529160200191620001dd565b820191906000526020600020905b815481529060010190602001808311620001bf57829003601f168201915b5050505050815260200190600101906200013c565b5050505060005b81518110156200026f576000620002338383815181106200021f576200021e620005c3565b5b6020026020010151620003a760201b60201c565b9080600181540180825580915050600190039060005260206000200160009091909190915055808062000266906200062b565b915050620001f9565b5060008151905060005b60008211156200039e5760005b60018362000295919062000679565b81101562000376576000808284620002ae9190620006b4565b81548110620002c257620002c1620005c3565b5b9060005260206000200154600060018486620002df9190620006b4565b620002eb9190620006b4565b81548110620002ff57620002fe620005c3565b5b90600052602060002001546040516020016200031d92919062000740565b6040516020818303038152906040528051906020012090506000819080600181540180825580915050600190039060005260206000200160009091909190915055506002816200036e9190620006b4565b905062000286565b508181620003859190620006b4565b90506002826200039691906200079f565b915062000279565b50505062000873565b600081604051602001620003bc91906200085a565b604051602081830303815290604052805190602001209050919050565b8280548282559060005260206000209081019282156200042d579160200282015b828111156200042c5782518290805190602001906200041b92919062000440565b5091602001919060010190620003fa565b5b5090506200043c9190620004d1565b5090565b8280546200044e906200058d565b90600052602060002090601f016020900481019282620004725760008555620004be565b82601f106200048d57805160ff1916838001178555620004be565b82800160010185558215620004be579182015b82811115620004bd578251825591602001919060010190620004a0565b5b509050620004cd9190620004f9565b5090565b5b80821115620004f55760008181620004eb919062000518565b50600101620004d2565b5090565b5b8082111562000514576000816000905550600101620004fa565b5090565b50805462000526906200058d565b6000825580601f106200053a57506200055b565b601f0160209004906000526020600020908101906200055a9190620004f9565b5b50565b7f4e487b7100000000000000000000000000000000000000000000000000000000600052602260045260246000fd5b60006002820490506001821680620005a657607f821691505b60208210811415620005bd57620005bc6200055e565b5b50919050565b7f4e487b7100000000000000000000000000000000000000000000000000000000600052603260045260246000fd5b7f4e487b7100000000000000000000000000000000000000000000000000000000600052601160045260246000fd5b6000819050919050565b6000620006388262000621565b91507fffffffffffffffffffffffffffffffffffffffffffffffffffffffffffffffff8214156200066e576200066d620005f2565b5b600182019050919050565b6000620006868262000621565b9150620006938362000621565b925082821015620006a957620006a8620005f2565b5b828203905092915050565b6000620006c18262000621565b9150620006ce8362000621565b9250827fffffffffffffffffffffffffffffffffffffffffffffffffffffffffffffffff03821115620007065762000705620005f2565b5b828201905092915050565b6000819050919050565b6000819050919050565b6200073a620007348262000711565b6200071b565b82525050565b60006200074e828562000725565b60208201915062000760828462000725565b6020820191508190509392505050565b7f4e487b7100000000000000000000000000000000000000000000000000000000600052601260045260246000fd5b6000620007ac8262000621565b9150620007b98362000621565b925082620007cc57620007cb62000770565b5b828204905092915050565b600081519050919050565b600081905092915050565b60005b838110156200080d578082015181840152602081019050620007f0565b838111156200081d576000848401525b50505050565b60006200083082620007d7565b6200083c8185620007e2565b93506200084e818560208601620007ed565b80840191505092915050565b600062000868828462000823565b915081905092915050565b610b4c80620008836000396000f3fe608060405234801561001057600080fd5b506004361061004c5760003560e01c80631e20af2e1461005157806372d274ef1461006f5780639ace38c21461008d578063e293676f146100bd575b600080fd5b6100596100ed565b6040516100669190610392565b60405180910390f35b6100776100f9565b6040516100849190610475565b60405180910390f35b6100a760048036038101906100a291906104d7565b610151565b6040516100b4919061059d565b60405180910390f35b6100d760048036038101906100d291906107e8565b6101fd565b6040516100e4919061088e565b60405180910390f35b60008080549050905090565b6060600080548060200260200160405190810160405280929190818152602001828054801561014757602002820191906000526020600020905b815481526020019060010190808311610133575b5050505050905090565b6001818154811061016157600080fd5b90600052602060002001600091509050805461017c906108d8565b80601f01602080910402602001604051908101604052809291908181526020018280546101a8906108d8565b80156101f55780601f106101ca576101008083540402835291602001916101f5565b820191906000526020600020905b8154815290600101906020018083116101d857829003601f168201915b505050505081565b60008061020b858585610221565b9050610215610313565b81149150509392505050565b60008061022d84610349565b905060005b85518110156103075760008060028661024b9190610939565b141561029b57828783815181106102655761026461096a565b5b602002602001015160405160200161027e9291906109ba565b6040516020818303038152906040528051906020012090506102e1565b8682815181106102ae576102ad61096a565b5b6020026020010151836040516020016102c89291906109ba565b6040516020818303038152906040528051906020012090505b6002856102ee9190610a15565b94508092505080806102ff90610a46565b915050610232565b50809150509392505050565b60008060016000805490506103289190610a8f565b815481106103395761033861096a565b5b9060005260206000200154905090565b60008160405160200161035c9190610aff565b604051602081830303815290604052805190602001209050919050565b6000819050919050565b61038c81610379565b82525050565b60006020820190506103a76000830184610383565b92915050565b600081519050919050565b600082825260208201905092915050565b6000819050602082019050919050565b6000819050919050565b6103ec816103d9565b82525050565b60006103fe83836103e3565b60208301905092915050565b6000602082019050919050565b6000610422826103ad565b61042c81856103b8565b9350610437836103c9565b8060005b8381101561046857815161044f88826103f2565b975061045a8361040a565b92505060018101905061043b565b5085935050505092915050565b6000602082019050818103600083015261048f8184610417565b905092915050565b6000604051905090565b600080fd5b600080fd5b6104b481610379565b81146104bf57600080fd5b50565b6000813590506104d1816104ab565b92915050565b6000602082840312156104ed576104ec6104a1565b5b60006104fb848285016104c2565b91505092915050565b600081519050919050565b600082825260208201905092915050565b60005b8381101561053e578082015181840152602081019050610523565b8381111561054d576000848401525b50505050565b6000601f19601f8301169050919050565b600061056f82610504565b610579818561050f565b9350610589818560208601610520565b61059281610553565b840191505092915050565b600060208201905081810360008301526105b78184610564565b905092915050565b600080fd5b7f4e487b7100000000000000000000000000000000000000000000000000000000600052604160045260246000fd5b6105fc82610553565b810181811067ffffffffffffffff8211171561061b5761061a6105c4565b5b80604052505050565b600061062e610497565b905061063a82826105f3565b919050565b600067ffffffffffffffff82111561065a576106596105c4565b5b602082029050602081019050919050565b600080fd5b610679816103d9565b811461068457600080fd5b50565b60008135905061069681610670565b92915050565b60006106af6106aa8461063f565b610624565b905080838252602082019050602084028301858111156106d2576106d161066b565b5b835b818110156106fb57806106e78882610687565b8452602084019350506020810190506106d4565b5050509392505050565b600082601f83011261071a576107196105bf565b5b813561072a84826020860161069c565b91505092915050565b600080fd5b600067ffffffffffffffff821115610753576107526105c4565b5b61075c82610553565b9050602081019050919050565b82818337600083830152505050565b600061078b61078684610738565b610624565b9050828152602081018484840111156107a7576107a6610733565b5b6107b2848285610769565b509392505050565b600082601f8301126107cf576107ce6105bf565b5b81356107df848260208601610778565b91505092915050565b600080600060608486031215610801576108006104a1565b5b600084013567ffffffffffffffff81111561081f5761081e6104a6565b5b61082b86828701610705565b935050602084013567ffffffffffffffff81111561084c5761084b6104a6565b5b610858868287016107ba565b9250506040610869868287016104c2565b9150509250925092565b60008115159050919050565b61088881610873565b82525050565b60006020820190506108a3600083018461087f565b92915050565b7f4e487b7100000000000000000000000000000000000000000000000000000000600052602260045260246000fd5b600060028204905060018216806108f057607f821691505b60208210811415610904576109036108a9565b5b50919050565b7f4e487b7100000000000000000000000000000000000000000000000000000000600052601260045260246000fd5b600061094482610379565b915061094f83610379565b92508261095f5761095e61090a565b5b828206905092915050565b7f4e487b7100000000000000000000000000000000000000000000000000000000600052603260045260246000fd5b6000819050919050565b6109b46109af826103d9565b610999565b82525050565b60006109c682856109a3565b6020820191506109d682846109a3565b6020820191508190509392505050565b7f4e487b7100000000000000000000000000000000000000000000000000000000600052601160045260246000fd5b6000610a2082610379565b9150610a2b83610379565b925082610a3b57610a3a61090a565b5b828204905092915050565b6000610a5182610379565b91507fffffffffffffffffffffffffffffffffffffffffffffffffffffffffffffffff821415610a8457610a836109e6565b5b600182019050919050565b6000610a9a82610379565b9150610aa583610379565b925082821015610ab857610ab76109e6565b5b828203905092915050565b600081905092915050565b6000610ad982610504565b610ae38185610ac3565b9350610af3818560208601610520565b80840191505092915050565b6000610b0b8284610ace565b91508190509291505056fea2646970667358221220fdfb5088faaca639f41edd174d0681875f222aff5c7b0b96ed917979a8f25fb064736f6c634300080a0033",
  "immutableReferences": {},
  "source": "pragma solidity ^0.8.0;\r\n\r\nimport \"./MerkleTree.sol\";\r\n\r\ncontract MerkleTreeX is MerkleTree\r\n{\r\n   string[] public transactions = [\r\n        \"Transaction 1\",\r\n        \"Transaction 2\",\r\n        \"Transaction 3\",\r\n        \"Transaction 4\"\r\n    ];\r\n\r\n   constructor ()\r\n   MerkleTree(transactions) public\r\n   {\r\n     \r\n   }\r\n}",
  "sourcePath": "C:\\Solidity\\MerkleTree\\contracts\\MerkleTreeX.sol",
  "compiler": {
    "name": "solc",
    "version": "0.8.10+commit.fc410830.Emscripten.clang"
  },
  "schemaVersion": "3.4.3",
  "updatedAt": "2022-09-26T08:10:32.776Z",
  "networkType": "ethereum",
  "devdoc": {
    "kind": "dev",
    "methods": {},
    "version": 1
  },
  "userdoc": {
    "kind": "user",
    "methods": {},
    "version": 1
  }
}