{
  "contractName": "MerkleTree",
  "abi": [
    {
      "inputs": [
        {
          "internalType": "string[]",
          "name": "transactions",
          "type": "string[]"
        }
      ],
      "stateMutability": "nonpayable",
      "type": "constructor"
    },
    {
      "inputs": [],
      "name": "getHashesArray",
      "outputs": [
        {
          "internalType": "bytes32[]",
          "name": "",
          "type": "bytes32[]"
        }
      ],
      "stateMutability": "view",
      "type": "function"
    },
    {
      "inputs": [],
      "name": "getHashesArrayLength",
      "outputs": [
        {
          "internalType": "uint256",
          "name": "",
          "type": "uint256"
        }
      ],
      "stateMutability": "view",
      "type": "function"
    },
    {
      "inputs": [],
      "name": "getMerkleTreeRoot",
      "outputs": [
        {
          "internalType": "bytes32",
          "name": "",
          "type": "bytes32"
        }
      ],
      "stateMutability": "view",
      "type": "function"
    },
    {
      "inputs": [
        {
          "internalType": "bytes32[]",
          "name": "proofs",
          "type": "bytes32[]"
        },
        {
          "internalType": "string",
          "name": "leaf",
          "type": "string"
        },
        {
          "internalType": "uint256",
          "name": "index",
          "type": "uint256"
        }
      ],
      "name": "processProof",
      "outputs": [
        {
          "internalType": "bytes32",
          "name": "",
          "type": "bytes32"
        }
      ],
      "stateMutability": "pure",
      "type": "function"
    },
    {
      "inputs": [
        {
          "internalType": "bytes32[]",
          "name": "proofs",
          "type": "bytes32[]"
        },
        {
          "internalType": "string",
          "name": "leaf",
          "type": "string"
        },
        {
          "internalType": "uint256",
          "name": "index",
          "type": "uint256"
        }
      ],
      "name": "isValidTransaction",
      "outputs": [
        {
          "internalType": "bool",
          "name": "",
          "type": "bool"
        }
      ],
      "stateMutability": "view",
      "type": "function"
    }
  ],
  "bytecode": "0x60806040523480156200001157600080fd5b5060405162001187380380620011878339818101604052810190620000379190620004b3565b60005b8151811015620000b05760006200007483838151811062000060576200005f62000504565b5b6020026020010151620001e860201b60201c565b90806001815401808255809150506001900390600052602060002001600090919091909150558080620000a7906200056c565b9150506200003a565b5060008151905060005b6000821115620001df5760005b600183620000d69190620005ba565b811015620001b7576000808284620000ef9190620005f5565b8154811062000103576200010262000504565b5b9060005260206000200154600060018486620001209190620005f5565b6200012c9190620005f5565b8154811062000140576200013f62000504565b5b90600052602060002001546040516020016200015e92919062000681565b604051602081830303815290604052805190602001209050600081908060018154018082558091505060019003906000526020600020016000909190919091505550600281620001af9190620005f5565b9050620000c7565b508181620001c69190620005f5565b9050600282620001d79190620006e0565b9150620000ba565b5050506200077e565b600081604051602001620001fd919062000765565b604051602081830303815290604052805190602001209050919050565b6000604051905090565b600080fd5b600080fd5b600080fd5b6000601f19601f8301169050919050565b7f4e487b7100000000000000000000000000000000000000000000000000000000600052604160045260246000fd5b6200027e8262000233565b810181811067ffffffffffffffff82111715620002a0576200029f62000244565b5b80604052505050565b6000620002b56200021a565b9050620002c3828262000273565b919050565b600067ffffffffffffffff821115620002e657620002e562000244565b5b602082029050602081019050919050565b600080fd5b600080fd5b600067ffffffffffffffff8211156200031f576200031e62000244565b5b6200032a8262000233565b9050602081019050919050565b60005b83811015620003575780820151818401526020810190506200033a565b8381111562000367576000848401525b50505050565b6000620003846200037e8462000301565b620002a9565b905082815260208101848484011115620003a357620003a2620002fc565b5b620003b084828562000337565b509392505050565b600082601f830112620003d057620003cf6200022e565b5b8151620003e28482602086016200036d565b91505092915050565b600062000402620003fc84620002c8565b620002a9565b90508083825260208201905060208402830185811115620004285762000427620002f7565b5b835b818110156200047657805167ffffffffffffffff8111156200045157620004506200022e565b5b808601620004608982620003b8565b855260208501945050506020810190506200042a565b5050509392505050565b600082601f8301126200049857620004976200022e565b5b8151620004aa848260208601620003eb565b91505092915050565b600060208284031215620004cc57620004cb62000224565b5b600082015167ffffffffffffffff811115620004ed57620004ec62000229565b5b620004fb8482850162000480565b91505092915050565b7f4e487b7100000000000000000000000000000000000000000000000000000000600052603260045260246000fd5b7f4e487b7100000000000000000000000000000000000000000000000000000000600052601160045260246000fd5b6000819050919050565b6000620005798262000562565b91507fffffffffffffffffffffffffffffffffffffffffffffffffffffffffffffffff821415620005af57620005ae62000533565b5b600182019050919050565b6000620005c78262000562565b9150620005d48362000562565b925082821015620005ea57620005e962000533565b5b828203905092915050565b6000620006028262000562565b91506200060f8362000562565b9250827fffffffffffffffffffffffffffffffffffffffffffffffffffffffffffffffff0382111562000647576200064662000533565b5b828201905092915050565b6000819050919050565b6000819050919050565b6200067b620006758262000652565b6200065c565b82525050565b60006200068f828562000666565b602082019150620006a1828462000666565b6020820191508190509392505050565b7f4e487b7100000000000000000000000000000000000000000000000000000000600052601260045260246000fd5b6000620006ed8262000562565b9150620006fa8362000562565b9250826200070d576200070c620006b1565b5b828204905092915050565b600081519050919050565b600081905092915050565b60006200073b8262000718565b62000747818562000723565b93506200075981856020860162000337565b80840191505092915050565b60006200077382846200072e565b915081905092915050565b6109f9806200078e6000396000f3fe608060405234801561001057600080fd5b50600436106100575760003560e01c806308360ba71461005c5780631e20af2e1461008c57806372d274ef146100aa578063c3fc43f3146100c8578063e293676f146100e6575b600080fd5b61007660048036038101906100719190610584565b610116565b604051610083919061061e565b60405180910390f35b610094610208565b6040516100a19190610648565b60405180910390f35b6100b2610214565b6040516100bf9190610721565b60405180910390f35b6100d061026c565b6040516100dd919061061e565b60405180910390f35b61010060048036038101906100fb9190610584565b6102a2565b60405161010d919061075e565b60405180910390f35b600080610122846102c6565b905060005b85518110156101fc5760008060028661014091906107a8565b1415610190578287838151811061015a576101596107d9565b5b6020026020010151604051602001610173929190610829565b6040516020818303038152906040528051906020012090506101d6565b8682815181106101a3576101a26107d9565b5b6020026020010151836040516020016101bd929190610829565b6040516020818303038152906040528051906020012090505b6002856101e39190610884565b94508092505080806101f4906108b5565b915050610127565b50809150509392505050565b60008080549050905090565b6060600080548060200260200160405190810160405280929190818152602001828054801561026257602002820191906000526020600020905b81548152602001906001019080831161024e575b5050505050905090565b600080600160008054905061028191906108fe565b81548110610292576102916107d9565b5b9060005260206000200154905090565b6000806102b0858585610116565b90506102ba61026c565b81149150509392505050565b6000816040516020016102d991906109ac565b604051602081830303815290604052805190602001209050919050565b6000604051905090565b600080fd5b600080fd5b600080fd5b6000601f19601f8301169050919050565b7f4e487b7100000000000000000000000000000000000000000000000000000000600052604160045260246000fd5b6103588261030f565b810181811067ffffffffffffffff8211171561037757610376610320565b5b80604052505050565b600061038a6102f6565b9050610396828261034f565b919050565b600067ffffffffffffffff8211156103b6576103b5610320565b5b602082029050602081019050919050565b600080fd5b6000819050919050565b6103df816103cc565b81146103ea57600080fd5b50565b6000813590506103fc816103d6565b92915050565b60006104156104108461039b565b610380565b90508083825260208201905060208402830185811115610438576104376103c7565b5b835b81811015610461578061044d88826103ed565b84526020840193505060208101905061043a565b5050509392505050565b600082601f8301126104805761047f61030a565b5b8135610490848260208601610402565b91505092915050565b600080fd5b600067ffffffffffffffff8211156104b9576104b8610320565b5b6104c28261030f565b9050602081019050919050565b82818337600083830152505050565b60006104f16104ec8461049e565b610380565b90508281526020810184848401111561050d5761050c610499565b5b6105188482856104cf565b509392505050565b600082601f8301126105355761053461030a565b5b81356105458482602086016104de565b91505092915050565b6000819050919050565b6105618161054e565b811461056c57600080fd5b50565b60008135905061057e81610558565b92915050565b60008060006060848603121561059d5761059c610300565b5b600084013567ffffffffffffffff8111156105bb576105ba610305565b5b6105c78682870161046b565b935050602084013567ffffffffffffffff8111156105e8576105e7610305565b5b6105f486828701610520565b92505060406106058682870161056f565b9150509250925092565b610618816103cc565b82525050565b6000602082019050610633600083018461060f565b92915050565b6106428161054e565b82525050565b600060208201905061065d6000830184610639565b92915050565b600081519050919050565b600082825260208201905092915050565b6000819050602082019050919050565b610698816103cc565b82525050565b60006106aa838361068f565b60208301905092915050565b6000602082019050919050565b60006106ce82610663565b6106d8818561066e565b93506106e38361067f565b8060005b838110156107145781516106fb888261069e565b9750610706836106b6565b9250506001810190506106e7565b5085935050505092915050565b6000602082019050818103600083015261073b81846106c3565b905092915050565b60008115159050919050565b61075881610743565b82525050565b6000602082019050610773600083018461074f565b92915050565b7f4e487b7100000000000000000000000000000000000000000000000000000000600052601260045260246000fd5b60006107b38261054e565b91506107be8361054e565b9250826107ce576107cd610779565b5b828206905092915050565b7f4e487b7100000000000000000000000000000000000000000000000000000000600052603260045260246000fd5b6000819050919050565b61082361081e826103cc565b610808565b82525050565b60006108358285610812565b6020820191506108458284610812565b6020820191508190509392505050565b7f4e487b7100000000000000000000000000000000000000000000000000000000600052601160045260246000fd5b600061088f8261054e565b915061089a8361054e565b9250826108aa576108a9610779565b5b828204905092915050565b60006108c08261054e565b91507fffffffffffffffffffffffffffffffffffffffffffffffffffffffffffffffff8214156108f3576108f2610855565b5b600182019050919050565b60006109098261054e565b91506109148361054e565b92508282101561092757610926610855565b5b828203905092915050565b600081519050919050565b600081905092915050565b60005b8381101561096657808201518184015260208101905061094b565b83811115610975576000848401525b50505050565b600061098682610932565b610990818561093d565b93506109a0818560208601610948565b80840191505092915050565b60006109b8828461097b565b91508190509291505056fea26469706673582212206a876528970f866b40dd579a1a022ab1cdd428db2fac0f13174c6c37c801b3d764736f6c634300080a0033",
  "immutableReferences": {},
  "source": "pragma solidity ^0.8.0;\r\n\r\n//import \"openzeppelin-solidity/contracts/utils/math/SafeMath.sol\";\r\n\r\ncontract MerkleTree\r\n{\r\n   bytes32[] private hashesArray;\r\n\r\n   constructor (string[] memory transactions) public\r\n   {\r\n      for(uint i = 0; i < transactions.length; i++) \r\n      {\r\n            hashesArray.push(makeHash(transactions[i]));  \r\n      }\r\n      uint count = transactions.length;\r\n      uint offset = 0;\r\n      while (count > 0)\r\n      {\r\n         for(uint i = 0; i < count - 1; i+=2) \r\n         {\r\n            bytes32 hashParent = keccak256(abi.encodePacked(hashesArray[offset + i], hashesArray[offset + i + 1]));\r\n            hashesArray.push(hashParent);\r\n         }\r\n         offset += count;\r\n         count = count / 2;\r\n      }\r\n   }\r\n\r\n   function makeHash(string memory transaction) private pure returns(bytes32) \r\n   {\r\n      return keccak256(abi.encodePacked(transaction));\r\n   }\r\n\r\n   function getHashesArray() external view returns (bytes32[] memory)\r\n   {\r\n      return hashesArray;\r\n   }\r\n\r\n   function getHashesArrayLength() external view returns (uint)\r\n   {\r\n      return hashesArray.length;\r\n   }\r\n\r\n   function getMerkleTreeRoot() public view returns (bytes32)\r\n   {\r\n      return hashesArray[hashesArray.length - 1];\r\n   }\r\n\r\n   function processProof(bytes32[] memory proofs, string memory leaf, uint index) public pure returns (bytes32) \r\n   {\r\n      bytes32 computedRoot = makeHash(leaf);\r\n      for (uint i = 0; i < proofs.length; i++)\r\n      {\r\n         bytes32 parentHash;\r\n         if (index % 2 == 0)\r\n            parentHash = keccak256(abi.encodePacked(computedRoot,proofs[i]));\r\n         else\r\n            parentHash = keccak256(abi.encodePacked(proofs[i],computedRoot));\r\n         index = index / 2;\r\n         computedRoot = parentHash;\r\n      }\r\n      return computedRoot;\r\n   }\r\n\r\n   function isValidTransaction(bytes32[] memory proofs, string memory leaf, uint index) external view returns (bool)\r\n   {\r\n      bytes32 computedRoot = processProof(proofs, leaf, index);\r\n      return computedRoot == getMerkleTreeRoot();\r\n   }\r\n}",
  "sourcePath": "C:\\Solidity\\MerkleTree\\contracts\\MerkleTree.sol",
  "compiler": {
    "name": "solc",
    "version": "0.8.10+commit.fc410830.Emscripten.clang"
  },
  "schemaVersion": "3.4.3",
  "updatedAt": "2022-09-16T09:49:50.096Z",
  "devdoc": {
    "kind": "dev",
    "methods": {},
    "version": 1
  },
  "userdoc": {
    "kind": "user",
    "methods": {},
    "version": 1
  }
}