{
  "contractName": "MerkleTreeToken",
  "abi": [
    {
      "inputs": [],
      "stateMutability": "nonpayable",
      "type": "constructor"
    },
    {
      "inputs": [],
      "name": "merkleTree",
      "outputs": [
        {
          "internalType": "string",
          "name": "data",
          "type": "string"
        },
        {
          "internalType": "bytes32",
          "name": "hashData",
          "type": "bytes32"
        }
      ],
      "stateMutability": "view",
      "type": "function",
      "constant": true
    },
    {
      "inputs": [],
      "name": "getData",
      "outputs": [
        {
          "internalType": "string",
          "name": "",
          "type": "string"
        }
      ],
      "stateMutability": "view",
      "type": "function",
      "constant": true
    },
    {
      "inputs": [],
      "name": "getHashData",
      "outputs": [
        {
          "internalType": "bytes32",
          "name": "",
          "type": "bytes32"
        }
      ],
      "stateMutability": "view",
      "type": "function",
      "constant": true
    },
    {
      "inputs": [
        {
          "internalType": "string",
          "name": "a",
          "type": "string"
        },
        {
          "internalType": "string",
          "name": "b",
          "type": "string"
        }
      ],
      "name": "concatHashes",
      "outputs": [
        {
          "internalType": "bytes32",
          "name": "",
          "type": "bytes32"
        }
      ],
      "stateMutability": "pure",
      "type": "function",
      "constant": true
    },
    {
      "inputs": [
        {
          "internalType": "string",
          "name": "a",
          "type": "string"
        }
      ],
      "name": "hash",
      "outputs": [
        {
          "internalType": "bytes32",
          "name": "",
          "type": "bytes32"
        }
      ],
      "stateMutability": "pure",
      "type": "function",
      "constant": true
    },
    {
      "inputs": [
        {
          "internalType": "string[]",
          "name": "proofs",
          "type": "string[]"
        },
        {
          "internalType": "string",
          "name": "leaf",
          "type": "string"
        }
      ],
      "name": "processProof",
      "outputs": [
        {
          "internalType": "bytes32",
          "name": "",
          "type": "bytes32"
        }
      ],
      "stateMutability": "pure",
      "type": "function",
      "constant": true
    }
  ],
  "bytecode": "0x608060405234801561001057600080fd5b5060006040518060400160405280600681526020017f7465737420310000000000000000000000000000000000000000000000000000815250905060007f7bd49f853c8a4cdd70b5f2e1944f75623f28374ff207b5cc290bccf87516019d90506040518060400160405280838152602001828152506000808201518160000190805190602001906100a29291906100b7565b506020820151816001015590505050506101bb565b8280546100c390610189565b90600052602060002090601f0160209004810192826100e5576000855561012c565b82601f106100fe57805160ff191683800117855561012c565b8280016001018555821561012c579182015b8281111561012b578251825591602001919060010190610110565b5b509050610139919061013d565b5090565b5b8082111561015657600081600090555060010161013e565b5090565b7f4e487b7100000000000000000000000000000000000000000000000000000000600052602260045260246000fd5b600060028204905060018216806101a157607f821691505b602082108114156101b5576101b461015a565b5b50919050565b610ab0806101ca6000396000f3fe608060405234801561001057600080fd5b50600436106100625760003560e01c80633bc5de30146100675780638bce9b4414610085578063b411ee94146100b5578063bb7df052146100e5578063d4b2b4c214610104578063f379ac5314610134575b600080fd5b61006f610152565b60405161007c9190610416565b60405180910390f35b61009f600480360381019061009a9190610581565b6101e6565b6040516100ac9190610612565b60405180910390f35b6100cf60048036038101906100ca919061062d565b61021e565b6040516100dc9190610612565b60405180910390f35b6100ed610253565b6040516100fb929190610676565b60405180910390f35b61011e6004803603810190610119919061078c565b6102ed565b60405161012b9190610612565b60405180910390f35b61013c610371565b6040516101499190610612565b60405180910390f35b606060008001805461016390610833565b80601f016020809104026020016040519081016040528092919081815260200182805461018f90610833565b80156101dc5780601f106101b1576101008083540402835291602001916101dc565b820191906000526020600020905b8154815290600101906020018083116101bf57829003601f168201915b5050505050905090565b60008083836040516020016101fc9291906108a1565b6040516020818303038152906040529050808051906020012091505092915050565b6000808260405160200161023291906108c5565b60405160208183030381529060405290508080519060200120915050919050565b600080600001805461026490610833565b80601f016020809104026020016040519081016040528092919081815260200182805461029090610833565b80156102dd5780601f106102b2576101008083540402835291602001916102dd565b820191906000526020600020905b8154815290600101906020018083116102c057829003601f168201915b5050505050908060010154905082565b600080826102fa90610919565b905060005b845181101561036657600085828151811061031d5761031c610980565b5b6020026020010151836040516020016103379291906109d0565b60405160208183030381529060405290508080519060200120925050808061035e90610a31565b9150506102ff565b508091505092915050565b60008060010154905090565b600081519050919050565b600082825260208201905092915050565b60005b838110156103b757808201518184015260208101905061039c565b838111156103c6576000848401525b50505050565b6000601f19601f8301169050919050565b60006103e88261037d565b6103f28185610388565b9350610402818560208601610399565b61040b816103cc565b840191505092915050565b6000602082019050818103600083015261043081846103dd565b905092915050565b6000604051905090565b600080fd5b600080fd5b600080fd5b600080fd5b7f4e487b7100000000000000000000000000000000000000000000000000000000600052604160045260246000fd5b61048e826103cc565b810181811067ffffffffffffffff821117156104ad576104ac610456565b5b80604052505050565b60006104c0610438565b90506104cc8282610485565b919050565b600067ffffffffffffffff8211156104ec576104eb610456565b5b6104f5826103cc565b9050602081019050919050565b82818337600083830152505050565b600061052461051f846104d1565b6104b6565b9050828152602081018484840111156105405761053f610451565b5b61054b848285610502565b509392505050565b600082601f8301126105685761056761044c565b5b8135610578848260208601610511565b91505092915050565b6000806040838503121561059857610597610442565b5b600083013567ffffffffffffffff8111156105b6576105b5610447565b5b6105c285828601610553565b925050602083013567ffffffffffffffff8111156105e3576105e2610447565b5b6105ef85828601610553565b9150509250929050565b6000819050919050565b61060c816105f9565b82525050565b60006020820190506106276000830184610603565b92915050565b60006020828403121561064357610642610442565b5b600082013567ffffffffffffffff81111561066157610660610447565b5b61066d84828501610553565b91505092915050565b6000604082019050818103600083015261069081856103dd565b905061069f6020830184610603565b9392505050565b600067ffffffffffffffff8211156106c1576106c0610456565b5b602082029050602081019050919050565b600080fd5b60006106ea6106e5846106a6565b6104b6565b9050808382526020820190506020840283018581111561070d5761070c6106d2565b5b835b8181101561075457803567ffffffffffffffff8111156107325761073161044c565b5b80860161073f8982610553565b8552602085019450505060208101905061070f565b5050509392505050565b600082601f8301126107735761077261044c565b5b81356107838482602086016106d7565b91505092915050565b600080604083850312156107a3576107a2610442565b5b600083013567ffffffffffffffff8111156107c1576107c0610447565b5b6107cd8582860161075e565b925050602083013567ffffffffffffffff8111156107ee576107ed610447565b5b6107fa85828601610553565b9150509250929050565b7f4e487b7100000000000000000000000000000000000000000000000000000000600052602260045260246000fd5b6000600282049050600182168061084b57607f821691505b6020821081141561085f5761085e610804565b5b50919050565b600081905092915050565b600061087b8261037d565b6108858185610865565b9350610895818560208601610399565b80840191505092915050565b60006108ad8285610870565b91506108b98284610870565b91508190509392505050565b60006108d18284610870565b915081905092915050565b600081519050919050565b6000819050602082019050919050565b600061090382516105f9565b80915050919050565b600082821b905092915050565b6000610924826108dc565b8261092e846108e7565b9050610939816108f7565b92506020821015610979576109747fffffffffffffffffffffffffffffffffffffffffffffffffffffffffffffffff8360200360080261090c565b831692505b5050919050565b7f4e487b7100000000000000000000000000000000000000000000000000000000600052603260045260246000fd5b6000819050919050565b6109ca6109c5826105f9565b6109af565b82525050565b60006109dc8285610870565b91506109e882846109b9565b6020820191508190509392505050565b7f4e487b7100000000000000000000000000000000000000000000000000000000600052601160045260246000fd5b6000819050919050565b6000610a3c82610a27565b91507fffffffffffffffffffffffffffffffffffffffffffffffffffffffffffffffff821415610a6f57610a6e6109f8565b5b60018201905091905056fea264697066735822122099e4e4edf960f2369e1d06f41f07ad5e4897265c353d5169ca85be19985e405d64736f6c634300080a0033",
  "immutableReferences": {},
  "source": "pragma solidity ^0.8.0;\r\n\r\n//import \"openzeppelin-solidity/contracts/utils/math/SafeMath.sol\";\r\n\r\ncontract MerkleTreeToken\r\n{\r\n    struct MerkleTree \r\n    {\r\n        string data;\r\n        bytes32 hashData;\r\n    } \r\n    MerkleTree public merkleTree;\r\n\r\n    constructor () public\r\n    {\r\n        string memory data = \"test 1\";\r\n        bytes32 hashData = keccak256(\"test 1\");\r\n        merkleTree = MerkleTree(data,hashData);\r\n    }\r\n\r\n    function getData() external view returns (string memory) \r\n    {\r\n       return merkleTree.data;\r\n    }\r\n    \r\n    function getHashData() external view returns (bytes32)\r\n    {\r\n       return merkleTree.hashData;\r\n    }\r\n\r\n    function concatHashes(string memory a, string memory b) external pure returns (bytes32)\r\n    {\r\n       bytes memory concatHashes = abi.encodePacked(a,b); \r\n       return keccak256(concatHashes);\r\n    }\r\n\r\n    function hash(string memory a) external pure returns (bytes32)\r\n    {\r\n       bytes memory concatHashes = abi.encodePacked(a); \r\n       return keccak256(concatHashes);\r\n    }\r\n\r\n\r\n\r\n    function processProof(string[] memory proofs, string memory leaf) external pure returns (bytes32) \r\n    {\r\n       bytes32 computedRoot = bytes32(bytes(leaf));\r\n       for (uint256 i = 0; i < proofs.length; i++)\r\n       {\r\n            bytes memory concat = abi.encodePacked(proofs[i],computedRoot);\r\n            computedRoot = keccak256(concat);\r\n       }\r\n       return computedRoot;\r\n    }\r\n}",
  "sourcePath": "C:\\Solidity\\MerkleTree\\contracts\\MerkleTreeToken.sol",
  "compiler": {
    "name": "solc",
    "version": "0.8.10+commit.fc410830.Emscripten.clang"
  },
  "schemaVersion": "3.4.3",
  "updatedAt": "2022-09-14T14:13:56.658Z",
  "networkType": "ethereum",
  "devdoc": {
    "kind": "dev",
    "methods": {},
    "version": 1
  },
  "userdoc": {
    "kind": "user",
    "methods": {},
    "version": 1
  }
}