{
  "contractName": "MerkleTree",
  "abi": [
    {
      "inputs": [
        {
          "internalType": "string[]",
          "name": "transactions",
          "type": "string[]"
        }
      ],
      "stateMutability": "nonpayable",
      "type": "constructor"
    },
    {
      "inputs": [],
      "name": "getHashesArray",
      "outputs": [
        {
          "internalType": "bytes32[]",
          "name": "",
          "type": "bytes32[]"
        }
      ],
      "stateMutability": "view",
      "type": "function"
    },
    {
      "inputs": [],
      "name": "getHashesArrayLength",
      "outputs": [
        {
          "internalType": "uint256",
          "name": "",
          "type": "uint256"
        }
      ],
      "stateMutability": "view",
      "type": "function"
    },
    {
      "inputs": [
        {
          "internalType": "bytes32[]",
          "name": "proofs",
          "type": "bytes32[]"
        },
        {
          "internalType": "string",
          "name": "leaf",
          "type": "string"
        },
        {
          "internalType": "uint256",
          "name": "index",
          "type": "uint256"
        }
      ],
      "name": "isValidTransaction",
      "outputs": [
        {
          "internalType": "bool",
          "name": "",
          "type": "bool"
        }
      ],
      "stateMutability": "view",
      "type": "function"
    }
  ],
  "bytecode": "0x60806040523480156200001157600080fd5b50604051620010f9380380620010f98339818101604052810190620000379190620004b3565b60005b8151811015620000b05760006200007483838151811062000060576200005f62000504565b5b6020026020010151620001e860201b60201c565b90806001815401808255809150506001900390600052602060002001600090919091909150558080620000a7906200056c565b9150506200003a565b5060008151905060005b6000821115620001df5760005b600183620000d69190620005ba565b811015620001b7576000808284620000ef9190620005f5565b8154811062000103576200010262000504565b5b9060005260206000200154600060018486620001209190620005f5565b6200012c9190620005f5565b8154811062000140576200013f62000504565b5b90600052602060002001546040516020016200015e92919062000681565b604051602081830303815290604052805190602001209050600081908060018154018082558091505060019003906000526020600020016000909190919091505550600281620001af9190620005f5565b9050620000c7565b508181620001c69190620005f5565b9050600282620001d79190620006e0565b9150620000ba565b5050506200077e565b600081604051602001620001fd919062000765565b604051602081830303815290604052805190602001209050919050565b6000604051905090565b600080fd5b600080fd5b600080fd5b6000601f19601f8301169050919050565b7f4e487b7100000000000000000000000000000000000000000000000000000000600052604160045260246000fd5b6200027e8262000233565b810181811067ffffffffffffffff82111715620002a0576200029f62000244565b5b80604052505050565b6000620002b56200021a565b9050620002c3828262000273565b919050565b600067ffffffffffffffff821115620002e657620002e562000244565b5b602082029050602081019050919050565b600080fd5b600080fd5b600067ffffffffffffffff8211156200031f576200031e62000244565b5b6200032a8262000233565b9050602081019050919050565b60005b83811015620003575780820151818401526020810190506200033a565b8381111562000367576000848401525b50505050565b6000620003846200037e8462000301565b620002a9565b905082815260208101848484011115620003a357620003a2620002fc565b5b620003b084828562000337565b509392505050565b600082601f830112620003d057620003cf6200022e565b5b8151620003e28482602086016200036d565b91505092915050565b600062000402620003fc84620002c8565b620002a9565b90508083825260208201905060208402830185811115620004285762000427620002f7565b5b835b818110156200047657805167ffffffffffffffff8111156200045157620004506200022e565b5b808601620004608982620003b8565b855260208501945050506020810190506200042a565b5050509392505050565b600082601f8301126200049857620004976200022e565b5b8151620004aa848260208601620003eb565b91505092915050565b600060208284031215620004cc57620004cb62000224565b5b600082015167ffffffffffffffff811115620004ed57620004ec62000229565b5b620004fb8482850162000480565b91505092915050565b7f4e487b7100000000000000000000000000000000000000000000000000000000600052603260045260246000fd5b7f4e487b7100000000000000000000000000000000000000000000000000000000600052601160045260246000fd5b6000819050919050565b6000620005798262000562565b91507fffffffffffffffffffffffffffffffffffffffffffffffffffffffffffffffff821415620005af57620005ae62000533565b5b600182019050919050565b6000620005c78262000562565b9150620005d48362000562565b925082821015620005ea57620005e962000533565b5b828203905092915050565b6000620006028262000562565b91506200060f8362000562565b9250827fffffffffffffffffffffffffffffffffffffffffffffffffffffffffffffffff0382111562000647576200064662000533565b5b828201905092915050565b6000819050919050565b6000819050919050565b6200067b620006758262000652565b6200065c565b82525050565b60006200068f828562000666565b602082019150620006a1828462000666565b6020820191508190509392505050565b7f4e487b7100000000000000000000000000000000000000000000000000000000600052601260045260246000fd5b6000620006ed8262000562565b9150620006fa8362000562565b9250826200070d576200070c620006b1565b5b828204905092915050565b600081519050919050565b600081905092915050565b60006200073b8262000718565b62000747818562000723565b93506200075981856020860162000337565b80840191505092915050565b60006200077382846200072e565b915081905092915050565b61096b806200078e6000396000f3fe608060405234801561001057600080fd5b50600436106100415760003560e01c80631e20af2e1461004657806372d274ef14610064578063e293676f14610082575b600080fd5b61004e6100b2565b60405161005b91906102ab565b60405180910390f35b61006c6100be565b604051610079919061038e565b60405180910390f35b61009c6004803603810190610097919061062a565b610116565b6040516100a991906106d0565b60405180910390f35b60008080549050905090565b6060600080548060200260200160405190810160405280929190818152602001828054801561010c57602002820191906000526020600020905b8154815260200190600101908083116100f8575b5050505050905090565b60008061012485858561013a565b905061012e61022c565b81149150509392505050565b60008061014684610262565b905060005b855181101561022057600080600286610164919061071a565b14156101b4578287838151811061017e5761017d61074b565b5b602002602001015160405160200161019792919061079b565b6040516020818303038152906040528051906020012090506101fa565b8682815181106101c7576101c661074b565b5b6020026020010151836040516020016101e192919061079b565b6040516020818303038152906040528051906020012090505b60028561020791906107f6565b945080925050808061021890610827565b91505061014b565b50809150509392505050565b60008060016000805490506102419190610870565b815481106102525761025161074b565b5b9060005260206000200154905090565b600081604051602001610275919061091e565b604051602081830303815290604052805190602001209050919050565b6000819050919050565b6102a581610292565b82525050565b60006020820190506102c0600083018461029c565b92915050565b600081519050919050565b600082825260208201905092915050565b6000819050602082019050919050565b6000819050919050565b610305816102f2565b82525050565b600061031783836102fc565b60208301905092915050565b6000602082019050919050565b600061033b826102c6565b61034581856102d1565b9350610350836102e2565b8060005b83811015610381578151610368888261030b565b975061037383610323565b925050600181019050610354565b5085935050505092915050565b600060208201905081810360008301526103a88184610330565b905092915050565b6000604051905090565b600080fd5b600080fd5b600080fd5b6000601f19601f8301169050919050565b7f4e487b7100000000000000000000000000000000000000000000000000000000600052604160045260246000fd5b610412826103c9565b810181811067ffffffffffffffff82111715610431576104306103da565b5b80604052505050565b60006104446103b0565b90506104508282610409565b919050565b600067ffffffffffffffff8211156104705761046f6103da565b5b602082029050602081019050919050565b600080fd5b61048f816102f2565b811461049a57600080fd5b50565b6000813590506104ac81610486565b92915050565b60006104c56104c084610455565b61043a565b905080838252602082019050602084028301858111156104e8576104e7610481565b5b835b8181101561051157806104fd888261049d565b8452602084019350506020810190506104ea565b5050509392505050565b600082601f8301126105305761052f6103c4565b5b81356105408482602086016104b2565b91505092915050565b600080fd5b600067ffffffffffffffff821115610569576105686103da565b5b610572826103c9565b9050602081019050919050565b82818337600083830152505050565b60006105a161059c8461054e565b61043a565b9050828152602081018484840111156105bd576105bc610549565b5b6105c884828561057f565b509392505050565b600082601f8301126105e5576105e46103c4565b5b81356105f584826020860161058e565b91505092915050565b61060781610292565b811461061257600080fd5b50565b600081359050610624816105fe565b92915050565b600080600060608486031215610643576106426103ba565b5b600084013567ffffffffffffffff811115610661576106606103bf565b5b61066d8682870161051b565b935050602084013567ffffffffffffffff81111561068e5761068d6103bf565b5b61069a868287016105d0565b92505060406106ab86828701610615565b9150509250925092565b60008115159050919050565b6106ca816106b5565b82525050565b60006020820190506106e560008301846106c1565b92915050565b7f4e487b7100000000000000000000000000000000000000000000000000000000600052601260045260246000fd5b600061072582610292565b915061073083610292565b9250826107405761073f6106eb565b5b828206905092915050565b7f4e487b7100000000000000000000000000000000000000000000000000000000600052603260045260246000fd5b6000819050919050565b610795610790826102f2565b61077a565b82525050565b60006107a78285610784565b6020820191506107b78284610784565b6020820191508190509392505050565b7f4e487b7100000000000000000000000000000000000000000000000000000000600052601160045260246000fd5b600061080182610292565b915061080c83610292565b92508261081c5761081b6106eb565b5b828204905092915050565b600061083282610292565b91507fffffffffffffffffffffffffffffffffffffffffffffffffffffffffffffffff821415610865576108646107c7565b5b600182019050919050565b600061087b82610292565b915061088683610292565b925082821015610899576108986107c7565b5b828203905092915050565b600081519050919050565b600081905092915050565b60005b838110156108d85780820151818401526020810190506108bd565b838111156108e7576000848401525b50505050565b60006108f8826108a4565b61090281856108af565b93506109128185602086016108ba565b80840191505092915050565b600061092a82846108ed565b91508190509291505056fea2646970667358221220912de3d5607d444adda0dc30370481362e252dca5b57c78bb17ce051fb7c9c1f64736f6c634300080a0033",
  "immutableReferences": {},
  "source": "pragma solidity ^0.8.0;\r\n\r\n//import \"openzeppelin-solidity/contracts/utils/math/SafeMath.sol\";\r\n\r\ncontract MerkleTree\r\n{\r\n   bytes32[] private hashesArray;\r\n\r\n   constructor (string[] memory transactions) public\r\n   {\r\n      for(uint i = 0; i < transactions.length; i++) \r\n      {\r\n            hashesArray.push(computeHash(transactions[i]));  \r\n      }\r\n      uint count = transactions.length;\r\n      uint offset = 0;\r\n      while (count > 0)\r\n      {\r\n         for(uint i = 0; i < count - 1; i+=2) \r\n         {\r\n            bytes32 hashParent = keccak256(abi.encodePacked(hashesArray[offset + i], hashesArray[offset + i + 1]));\r\n            hashesArray.push(hashParent);\r\n         }\r\n         offset += count;\r\n         count = count / 2;\r\n      }\r\n   }\r\n\r\n   function computeHash(string memory transaction) private pure returns(bytes32) \r\n   {\r\n      return keccak256(abi.encodePacked(transaction));\r\n   }\r\n\r\n   function getHashesArray() external view returns (bytes32[] memory)\r\n   {\r\n      return hashesArray;\r\n   }\r\n\r\n   function getHashesArrayLength() external view returns (uint)\r\n   {\r\n      return hashesArray.length;\r\n   }\r\n\r\n   function getMerkleTreeRoot() private view returns (bytes32)\r\n   {\r\n      return hashesArray[hashesArray.length - 1];\r\n   }\r\n\r\n   function processProof(bytes32[] memory proofs, string memory leaf, uint index) private pure returns (bytes32) \r\n   {\r\n      bytes32 computedRoot = computeHash(leaf);\r\n      for (uint i = 0; i < proofs.length; i++)\r\n      {\r\n         bytes32 parentHash;\r\n         if (index % 2 == 0)\r\n            parentHash = keccak256(abi.encodePacked(computedRoot,proofs[i]));\r\n         else\r\n            parentHash = keccak256(abi.encodePacked(proofs[i],computedRoot));\r\n         index = index / 2;\r\n         computedRoot = parentHash;\r\n      }\r\n      return computedRoot;\r\n   }\r\n\r\n   function isValidTransaction(bytes32[] memory proofs, string memory leaf, uint index) external view returns (bool)\r\n   {\r\n      bytes32 computedRoot = processProof(proofs, leaf, index);\r\n      return computedRoot == getMerkleTreeRoot();\r\n   }\r\n}",
  "sourcePath": "C:\\Solidity\\MerkleTree\\contracts\\MerkleTree.sol",
  "compiler": {
    "name": "solc",
    "version": "0.8.10+commit.fc410830.Emscripten.clang"
  },
  "schemaVersion": "3.4.3",
  "updatedAt": "2022-09-27T07:41:30.416Z",
  "devdoc": {
    "kind": "dev",
    "methods": {},
    "version": 1
  },
  "userdoc": {
    "kind": "user",
    "methods": {},
    "version": 1
  }
}